:100000000C9417190C9448190C9448190C9448191D
:100010000C9448190C9448190C9448190C944819DC
:100020000C9448190C9448190C9448190C944819CC
:100030000C9448190C94427A0C9448190C94481961
:100040000C9448190C9466B40C9448190C944819F3
:100050000C9448190C9448190C94F87B0C9466691C
:100060000C9448190C9432D90C9478450C94481986
:100070000C9448190C9448190C9448190C9448197C
:100080000C9461B60C9448190C9448190C944819B6
:100090000C9448190C9448190C9448190C9448195C
:1000A0000C9448190C9448190C9434B60C944819C3
:1000B0000C9448190C9448190C9448190C9407B6E0
:1000C0000C9448190C9448190C9448190C9448192C
:1000D0000C9448190C9448190C9413530C94D45252
:1000E0000C944819C11BDE1B0F1C2C1C411C6B1CE3
:1000F000D81C3E1DEB1D29223322E2220A230E23A7
:100100006D235B288223CE23F5231E244A24A124B9
:10011000B224C624D724E824F9245B2858275B2876
:100120006327D327E727072807AB0AABF9AAFDAA5D
:1001300003AB41AB0EAB12AB18AB1CAB20AB26AB89
:100140002AAB2EAB41AB34AB38AB3CAB67B16CB137
:1001500071B17BB185B1FEB18FB197B19FB1A9B13A
:10016000B3B1BDB1CCB1D6B1FEB1E0B1EAB1F4B139
:1001700064D96AD97BD986D98ED9A3D992D9A3D982
:1001800096D99AD9A3D9A0D9084AD73B3BCE016EBC
:1001900084BCBFFDC12F3D6C74319ABD56833DDADE
:1001A0003D00C77F11BED9E4BB4C3E916BAAAABEED
:1001B000000000803F05A84CCDB2D44EB93836A916
:1001C000020C50B9918688083CA6AAAA2ABE000053
:1001D00000803F000D9419030D9455034E414E4984
:1001E0004E495459494E46CDCCCC3D0AD7233C17F5
:1001F000B7D13877CC2B329595E6241FB14F0A0042
:100200000020410000C84200401C4620BCBE4CCA31
:100210001B0E5AAEC59D7443616E6E6F7420656E81
:10022000746572207375626469723A20004D3630CD
:100230003000473238005370656369616C204D654A
:100240006E753A20486F6D650A004732370053706B
:10025000656369616C204D656E753A205061726B03
:10026000706F736974696F6E0A004D3134302053BA
:1002700030005370656369616C204D656E753A207E
:1002800048656174626564204F46460A004732380B
:1002900020590A4731205932303000537065636964
:1002A000616C204D656E753A20476F20746F205940
:1002B0003232300A005370656369616C204D656E9F
:1002C000753A2046696C616D656E744368616E674E
:1002D0006520526573756D650A00537065636961C9
:1002E0006C204D656E753A2046696C616D656E7463
:1002F0004368616E67652050617573650A004D350E
:100300003032005370656369616C204D656E753ADB
:10031000204C6F61642046572044656661756C749B
:10032000730A004D353030005370656369616C208D
:100330004D656E753A205361766520454550524FA4
:100340004D0A004D33303320452D312053363020B7
:10035000433130205531005370656369616C204D25
:10036000656E753A204175746F2054756E6520482E
:100370006F74626564205069640A004D3130362024
:10038000533230340A4D333033204530205332312C
:100390003020433130205531005370656369616C02
:1003A000204D656E753A204175746F2054756E65E9
:1003B00020486F74656E64205049440A0047323803
:1003C0000A473239005370656369616C204D656E70
:1003D000753A204175746F20426564204C657665DE
:1003E0006C696E670A004D3134302053363000534B
:1003F00070656369616C204D656E753A2048656172
:1004000074626564204F4E0A004D313038004D3122
:100410003038004D3234004D3234003C5370656347
:1004200069616C5F4D656E753E003C537065636934
:10043000616C5F4D656E753E002F002F002F002F01
:100440002E2E0A002F2E2E002F2E2E003C537065CC
:100450006369616C5F4D656E753E0A003C53706563
:100460006369616C204D656E753E003C5370656339
:1004700069616C204D656E753E003C474F20746F7E
:1004800020593232303E003C474F20746F205932A1
:1004900032303E003C486F6D653E003C486F6D65F4
:1004A0003E003C46696C616D656E744368616E67C1
:1004B0006520526573756D653E003C46696C616DE3
:1004C000656E744368616E676520526573756D650E
:1004D0003E003C46696C616D656E744368616E6791
:1004E000652050617573653E003C46696C616D65C1
:1004F0006E744368616E67652050617573653E0078
:100500003C4C6F61642046572044656661756C748D
:10051000733E003C4C6F6164204657204465666121
:10052000756C74733E003C4175746F2054756E6534
:1005300020486F74626564205049443E003C417518
:10054000746F2054756E6520486F74626564205026
:1005500049443E003C4175746F2054756E652048D7
:100560006F74656E64205049443E003C4175746F61
:100570002054756E6520486F74656E642050494440
:100580003E003C5061726B706F736974696F6E3EB0
:10059000003C5061726B706F736974696F6E3E00DE
:1005A0003C457869743E003C457869743E003C5394
:1005B00061766520454550524F4D3E003C53617673
:1005C0006520454550524F4D3E003C4175746F20AB
:1005D000426564204C6576656C696E673E003C41FF
:1005E00075746F20426564204C6576656C696E6732
:1005F0003E003C48656174626564204F4E3E003C9D
:1006000048656174626564204F4E3E005631313654
:10061000004A333320004D3530300A4D343230201B
:1006200053310A4731205A313020463234300A479C
:1006300031205830205930204636303030004D358A
:100640003030004D383531205A0041395620004AAB
:100650003232004A3232004731205A352046323495
:10066000300A47312058313930205932302046364F
:100670003030300A4731205A30204632343000477B
:1006800031205A3520463234300A4731205831392A
:100690003020593139302046363030300A47312049
:1006A0005A302046323430004731205A3520463205
:1006B00034300A4731205831393020593230204601
:1006C000363030300A4731205A302046323430003C
:1006D0004739310A4731205A313020463234300A06
:1006E0004739300A4732380A4732390A47312058E9
:1006F0003230205932302046363030300A473120EF
:100700005A302046323430004A3032004A3132000A
:100710004731205A3130004F4B004731205A313099
:1007200000473930004731204525694635303000D3
:10073000473120452D302E3146256900473120456F
:10074000302E31462569004731205A2569462569F2
:10075000004731205A2D302E31462569004731207F
:100760005A302E31462569004731205925694625E2
:100770006900473120592D302E3146256900473117
:100780002059302E314625690047312058256946C9
:10079000256900473120582D302E31462569004704
:1007A000312058302E314625690047393100473213
:1007B0003800473238205A00473238205900473233
:1007C000382058004132305620004731205A31300D
:1007D000004A3034004A3231004A3230004B494C32
:1007E0004C45442E20004A3136004A303400454EF4
:1007F0004400464E20004A3032003939393A3939FE
:1008000039004D0048004137562000413656202D12
:100810002D2D004A30320041365620005A3A200031
:10082000593A2000583A20004135560041345620AC
:1008300000413356200041325620004131562000FD
:1008400041305620004D3237004D383400473931A1
:100850000A473120452D312046313830300A47399A
:1008600030004A3136004D313235204C32004A31A9
:1008700038004A3134004A3030004A3031004A31C1
:100880003000434F4D4D554E49434154494F4E0062
:1008900044525952554E004552524F525300494E00
:1008A000464F004543484F0047322F47332062618F
:1008B0006420706172616D65746572730A00205AFC
:1008C0003A200020593A200042656420583A20001E
:1008D0004D65736820706F696E742063616E6E6F12
:1008E00074206265207265736F6C7665640A0045DA
:1008F0006E642066696C65206C6973740A004265D9
:1009000067696E2066696C65206C6973740A004DB6
:1009100031323500286E6F2066696C6529005344BA
:10092000207072696E74696E672062797465200048
:100930004E6F74205344207072696E74696E670A3A
:100940000043757272656E742066696C653A2000AA
:100950005072696E742074696D653A20006F6E2E56
:100960000A006F66662E0A004732362044656275BB
:10097000672000A3089E089708900882086F6666A3
:100980000044454255473A004D3131332053006F02
:100990006B002C20002C2000544845524D414C5FE8
:1009A00050524F54454354494F4E004155544F52B5
:1009B00045504F52545F53445F5354415455530074
:1009C000454D455247454E43595F5041525345525C
:1009D00000434153455F4C494748545F42524947A1
:1009E00048544E45535300544F47474C455F4C497C
:1009F0004748545300534F4654574152455F504F58
:100A0000574552004255494C445F50455243454E6C
:100A100054004C4556454C494E475F4441544100B3
:100A20005A5F50524F4245004155544F4C45564530
:100A30004C005052494E545F4A4F420050524F476B
:100A400052455353004155544F5245504F52545FF5
:100A500054454D5000564F4C554D45545249430056
:100A6000454550524F4D0053455249414C5F584FF8
:100A70004E5F584F4646004649524D574152455FDA
:100A80004E414D453A4D61726C696E20312E312ECA
:100A90003920284769746875622C2064617669641E
:100AA00072616D69726F29204D41524C494E2D4142
:100AB00049334D5F56455253494F4E3A76312E34A5
:100AC0002E3620534F555243455F434F44455F55A3
:100AD000524C3A68747470733A2F2F676974687552
:100AE000622E636F6D2F646176696472616D6972E5
:100AF0006F2F4D61726C696E2D4149334D205052FC
:100B00004F544F434F4C5F56455253494F4E3A3125
:100B10002E30204D414348494E455F545950453A87
:100B2000416E796375626963206933204D65676141
:100B30002045585452554445525F434F554E543A00
:100B40003120555549443A63656465326132662DFA
:100B5000343161322D343734382D396231322D63DE
:100B600035356336326633363766660A002F2F20F6
:100B700000205400205200416363656C657261740B
:100B8000696F6E3A2050005741524E494E4721201E
:100B90004C6F77205A204A65726B206D6179206C0A
:100BA00065616420746F20756E77616E7465642072
:100BB0007061757365732E0A00546F6F20666172E1
:100BC0002066726F6D207265666572656E63652062
:100BD000706F696E740A0020466C6F773A200000CF
:100BE00001363726032BFFFFFF3C3D382AFFFFFF6E
:100BF000FF2E303E12FFFFFFFFFF02FF0809FF2C10
:100C0000071A1C18FFFFFF08440A2C4324221E2049
:100C10006F7574206F662072616E67650A00536598
:100C200072766F20003A200020536572766F2000A4
:100C300043290A0061626C656420286D696E207426
:100C4000656D702000436F6C642065787472756404
:100C5000657320617265200020643A0020693A00C3
:100C600020703A004E6F2063617365206C6967687D
:100C7000740A004D65736820706F696E742063613B
:100C80006E6E6F74206265207265736F6C7665643A
:100C90000A004D34323120696E636F72726563747D
:100CA00020706172616D657465722075736167652E
:100CB0000A00454550524F4D204F4B0A00205A0024
:100CC0004475616C20456E6473746F702041646A72
:100CD0007573746D656E7420286D6D293A20003F20
:100CE0005A206F7574206F662072616E67652028C8
:100CF0002D31303020746F20313030290A003A20F5
:100D00000050726F6265205A204F666673657400EA
:100D10003F4B2076616C7565206F7574206F66207F
:100D200072616E67652028302D3130292E0A00410E
:100D30006476616E6365204B3D004163746976653E
:100D40002045787472756465723A2000496E766148
:100D50006C69642065787472756465720A00696EE6
:100D6000206D6F76655F746F282920666565645F06
:100D700076616C756520666F722058593A002C2098
:100D800065793D0029202D3E202865783D002C20E6
:100D900073793D0020436F6E6E656374696E6720E2
:100DA0007769746820766572746963616C206C6918
:100DB0006E65202873783D002C2065793D00292040
:100DC0002D3E202865783D002C2073793D0020437E
:100DD0006F6E6E656374696E6720776974682068EA
:100DE0006F72697A6F6E74616C206C696E65202811
:100DF00073783D003F537065636966696564205888
:100E00002C5920636F6F7264696E617465206F7511
:100E100074206F6620626F756E64732E0A003F281F
:100E2000522965706561742076616C7565206E6FFE
:100E30007420706C61757369626C653B206D7573AD
:100E400074206265206174206C6561737420312E9A
:100E50000A003F2852296570656174206D757374AE
:100E600020626520737065636966696564207768D0
:100E7000656E206E6F74207573696E6720616E20D9
:100E80004C43442E0A003F5370656369666965648C
:100E9000206E6F7A7A6C652074656D70657261740E
:100EA000757265206E6F7420706C61757369626C09
:100EB000652E0A003F537065636966696564206644
:100EC000696C616D656E742073697A65206E6F74EC
:100ED00020706C61757369626C652E0A003F5370F7
:100EE00065636966696564207072696D65206C650B
:100EF0006E677468206E6F7420706C6175736962C0
:100F00006C652E0A003F5072696D65206C656E67D6
:100F10007468206D757374206265207370656369F1
:100F200066696564207768656E206E6F74207573DE
:100F3000696E6720616E204C43442E0A003F537057
:100F400065636966696564206E6F7A7A6C65207383
:100F5000697A65206E6F7420706C61757369626C5C
:100F6000652E0A003F496E76616C69642052657493
:100F700072616374696F6E2F556E7265747261630E
:100F800074696F6E20726174696F2E204D75737471
:100F90002062652077697468696E20356D6D2E0A50
:100FA0000020556E72657472616374696F6E2061A2
:100FB0006D6F756E74206175746F6D6174696361B6
:100FC0006C6C792073657420746F20003F537065DA
:100FD00063696669656420556E72657472616374D5
:100FE000696F6E206C656E677468206E6F74207018
:100FF0006C61757369626C652E0A003F556E72658F
:101000007472616374696F6E206C656E67746820BA
:101010006D757374206265207370656369666965B8
:10102000642E0A003F5370656369666965642052E7
:10103000657472616374696F6E206C656E67746845
:10104000206E6F7420706C61757369626C652E0A16
:10105000003F52657472616374696F6E206C656ED7
:10106000677468206D7573742062652073706563A2
:1010700069666965642E0A003F5370656369666935
:101080006564206C617965722068656967687420A1
:101090006E6F7420706C61757369626C652E0A00E6
:1010A0003F53706563696669656420626564207496
:1010B000656D7065726174757265206E6F742070F5
:1010C0006C61757369626C65202834302D31343061
:1010D00043292E0A0047323620636F6D6D616E64BE
:1010E00020737461727465642E2057616974696E2F
:1010F0006720666F72206865617465722873292E97
:101100000A0024F4D43050C38E20C2A24017828B30
:101110007011127A910D816CD90AA861E108C75843
:101120006607615143061E4B5D05C145A7041A4180
:101130001104093D9803713931034036DB026533F0
:101140009102D4305402802E1D02632CEE01752AC8
:10115000C501B028A001102781018F2564012B242F
:101160004B01E0223401AC211F018D200D01801FB5
:10117000FC00841EED00971DDF00B81CD200E61BAA
:10118000C600201BBC00641AB200B219A8000A19DC
:10119000A0006A189900D117910040178B00B5166E
:1011A000840031167E00B31579003A157300C71418
:1011B0006F0058146A00EE1366008813630025134D
:1011C0005E00C7125B006C12570015125400C1116B
:1011D000510070114F0021114B00D61049008D10A5
:1011E00047004610440002104200C00F4000800F2C
:1011F0003E00420F3C00060F3B00CB0E3800930E22
:1012000037005C0E3500270E3400F30D3200C10D9F
:101210003100900D3000600D2E00320D2D00050DB7
:101220002C00D90C2B00AE0C2900850C29005C0C7D
:101230002700350C27000E0C2600E80B2400C40BF9
:101240002400A00B23007D0B23005A0B2100390B37
:101250002100180B2000F80A1F00D90A1E00BB0A43
:101260001E009D0A1D00800A1D00630A1C00470A1B
:101270001B002C0A1B00110A1A00F7091A00DD09CD
:101280001900C4091900AB091900920917007B095C
:101290001800630917004C091600360916002009CA
:1012A00016000A091500F5081500E0081400CC081E
:1012B0001400B8081400A4081400900813007D0856
:1012C00012006B0813005808120046081200340878
:1012D0001100230811001208110001081100F00785
:1012E0001000E0071000D0071000C0071000B00782
:1012F0000F00A107100091070E0083070F0074076D
:101300000F0065070E0057070E0049070E003B0748
:101310000D002E070E0020070D0013070D00060715
:101320000D00F9060C00ED060D00E0060C00D406D9
:101330000C00C8060C00BC060C00B0060C00A4068D
:101340000B0099060C008D060B0082060B00770639
:101350000B006C060B0061060A0057060B004C06DA
:101360000A0042060A0038060A002E060A00240671
:101370000A001A060A001006090007060A00FD0501
:101380000900F4050900EB050900E2050900D9058B
:101390000900D0050900C7050900BE050900B5050B
:1013A0000800AD050800A50509009C050800940586
:1013B00008008C050800840508007C0508007405F9
:1013C00008006C050700650508005D050700560567
:1013D00008004E05070047050700400508003805CE
:1013E0000700310507002A050700230507001C0533
:1013F0000600160507000F05070008050600020590
:101400000700FB040600F5040700EE040600E804EC
:101410000600E2040700DB040600D5040600CF0442
:101420000600C9040600C3040600BD040600B70494
:101430000600B1040500AC040600A6040600A004E2
:1014400005009B04060095040500900406008A042C
:10145000050085040500800406007A040500750473
:101460000500700405006B040500660405006104B6
:1014700005005C04050057040500520405004D04F6
:10148000050048040500430405003E0404003A0436
:10149000050035040500300404002C040500270471
:1014A0000400230405001E0404001A0404001604AA
:1014B0000500110404000D040400090405000404DF
:1014C000040000040400FC030400F8030400F40317
:1014D0000400F0030400EC030400E8030400E40348
:1014E0000400E0030400DC030400D8030400D40378
:1014F0000400D0030400CC030400C8030300C503A8
:10150000030024F404D9201BC40C5C0E9804C40905
:101510005F0265077101F405F900FB04B30048049C
:101520008700C10369005803550003034500BE024C
:101530003A008402310053022A00290225000402E5
:101540002000E4011C00C8011900AF011700980138
:101550001400840113007101100061011000510199
:101560000E0043010D0036010B002B010B00200182
:101570000B00150109000C01090003010800FB0024
:101580000800F3000800EB000700E4000600DE009E
:101590000600D8000600D2000600CC000500C700F7
:1015A0000500C2000500BD000400B9000400B5003C
:1015B0000400B1000400AD000400A9000400A5006F
:1015C0000300A20003009F0004009B00030098009A
:1015D00003009500020093000300900003008D00BB
:1015E00002008B00030088000200860002008400D5
:1015F0000300810002007F0002007D0002007B00EA
:1016000002007900020077000100760002007400F9
:10161000020072000100710002006F0002006D0004
:1016200001006C0002006A0001006900020067000E
:101630000100660001006500010064000200620014
:10164000010061000100600001005F0002005D0018
:1016500001005C0001005B0001005A00010059001C
:10166000010058000100570001005600010055001C
:10167000010054000100530000005300010052001B
:10168000010051000100500001004F0001004E0018
:1016900000004E0001004D0001004C0001004B0015
:1016A00000004B0001004A00010049000100480011
:1016B000000048000100470001004600000046000D
:1016C0000100450000004500010044000100430006
:1016D0000000430001004200000042000100410000
:1016E000000041000100400001003F0000003F00F9
:1016F00001003E0000003E0001003D0000003D00F2
:1017000001003C0000003C0000003C0001003B00E8
:1017100000003B0001003A0000003A0001003900DF
:1017200000003900010038000000380000003800D7
:1017300001003700000037000100360000003600CD
:1017400000003600010035000000350000003500C3
:1017500001003400000034000000340001003300B8
:1017600000003300000033000100320000003200AE
:1017700000003200010031000000310000003100A3
:1017800001003000000030000000300001002F0098
:1017900000002F0000002F0000002F0001002E008D
:1017A00000002E0000002E0001002D0000002D0082
:1017B00000002D0000002D0001002C0000002C0076
:1017C00000002C0000002C0001002B0000002B006A
:1017D00000002B0000002B0001002A0000002A005E
:1017E00000002A0000002A00010029000000290052
:1017F0000000290000002900000029000100280045
:101800000000280000002800000028000000280038
:10181000010027000000270000002700000027002B
:10182000000027000100260000002600000026001E
:101830000000260000002600010025000000250011
:101840000000250000002500000025000000250004
:1018500001002400000024000000240000002400F7
:1018600000002400010023000000230000002300EA
:1018700000002300000023000000230000002300DC
:1018800001002200000022000000220000002200CF
:1018900000002200000022000100210000002100C1
:1018A00000002100000021000000210000002100B4
:1018B00000002100010020000000200000002000A6
:1018C0000000200000002000000020000000200098
:1018D0000000200001001F0000001F0000001F008A
:1018E00000001F0000001F0000001F0000001F007C
:1018F00001001E0000001E0000001E0000001E006F
:101900000000232C0000B8220000561800003A0FF7
:101910000000B8080000B1040000710200003E01A0
:1019200000005072696E7465722073746F70706518
:10193000642064756520746F206572726F72732EF7
:101940002046697820746865206572726F72206124
:101950006E6420757365204D39393920746F20729B
:101960006573746172742E202854656D70657261A0
:10197000747572652069732072657365742E2053C7
:101980006574206974206166746572207265737471
:10199000617274696E67290A0053544F5020636165
:1019A0006C6C65642062656361757365206F662089
:1019B000424C546F756368206572726F72202D20DF
:1019C000726573746172742077697468204D393957
:1019D000390A0042696C696E656172204C657665F2
:1019E0006C696E6720477269643A0A00486F6D69D6
:1019F0006E67206661696C65640020284452595204
:101A0000554E2900473239204175746F2042656474
:101A1000204C6576656C696E67003F20284C2C521F
:101A20002C462C4229206F7574206F6620626F75DA
:101A30006E64732E0A003F2856296572626F7365C3
:101A4000206C6576656C20697320696D706C6175BA
:101A50007369626C652028302D34292E0A0042619A
:101A600064205A2076616C75650A004E6F206269A9
:101A70006C696E65617220677269640A004A31356B
:101A8000004A3132004A3137002020506C616E6EBE
:101A9000657242756666657242797465733A2000B4
:101AA0002046726565204D656D6F72793A2000435E
:101AB0006F6D70696C65643A204170722032352018
:101AC000323031390A00207C20417574686F723AD7
:101AD00020284D696368656C69782C646176696457
:101AE00072616D69726F290A00323031392D3034DC
:101AF0002D303300204C617374205570646174651F
:101B0000643A200076312E342E360A004D61726C14
:101B1000696E2D4149334D00312E312E390A004D69
:101B200061726C696E0020536F6674776172652014
:101B300052657365740A00205761746368646F6747
:101B40002052657365740A002042726F776E206FB1
:101B500075742052657365740A0020457874657247
:101B60006E616C2052657365740A00506F77657200
:101B700055700A0073746172740A004D3234004D5E
:101B80003233202573006175746F25692E670065F7
:101B900072726F722077726974696E6720746F2039
:101BA00066696C650A0020503A00205A3A002059B4
:101BB0003A0020583A00656E6473746F7073206841
:101BC00069743A2000446F6E6520736176696E67B0
:101BD0002066696C652E0A004D32390020746F6FE3
:101BE000206C6F6E6720657874727573696F6E20F4
:101BF00070726576656E7465640A0020636F6C644C
:101C000020657874727573696F6E20707265766581
:101C10006E7465640A001000C90210012C014001B5
:101C2000220170011801B0010E01F00104015002FF
:101C3000FA00B002F0003003E600D003DC009004AC
:101C4000D2007005C800A006BE000008B400B009AC
:101C5000AA00D00BA000600E960060118C00001549
:101C6000820020197800C01D6E00A0226400B027F9
:101C70005A00902C500000314600E0343C001038EF
:101C80003200903A2800603C1E00A03D1400803EC7
:101C90000A00203F00006265640A002C20737973FB
:101CA00074656D2073746F70706564212048656180
:101CB0007465725F49443A2000426564206865613A
:101CC00074696E67206661696C656400486561745B
:101CD000696E67206661696C6564004531204865FE
:101CE0006174696E67206661696C6564004865614E
:101CF00074696E67206661696C6564004B494C4C81
:101D000045442E200070012C0190012701B00122D2
:101D100001C0011D01F00118011002130130020E73
:101D2000016002090190020401C002FF000003FAF1
:101D3000004003F5008003F000D003EB002004E630
:101D4000007004E100E004DC004005D700C005D2CB
:101D5000004006CD00D006C8008007C3003008BE92
:101D600000F008B900C009B400B00AAF00B00BAA77
:101D700000D00CA500000EA000500F9B00C01096D4
:101D8000005012910000148C00C0158700B017821B
:101D900000B0197D00D01B7800001E730040206E3B
:101DA0000090226900F024640040275F0090295AC7
:101DB00000E02B5500102E500020304B0010324612
:101DC00000E033410090353C001037370070383266
:101DD00000A0392D00B03A2800A03B2300603C1E33
:101DE00000103D1900903D1400103E0F00703E0A97
:101DF00000C03E0500003F0000403FFBFF803FF673
:101E0000FFC03FF1FF453120544845524D414C2021
:101E100052554E415741590042454420544845527D
:101E20004D414C2052554E415741590054686572FE
:101E30006D616C2052756E61776179004531204586
:101E400072723A204D415854454D50004572723AD5
:101E5000204D415854454D5020424544004D415875
:101E600054454D502074726967676572656400451A
:101E700031204572723A204D494E54454D5000452F
:101E800072723A204D494E54454D5020424544000F
:101E90004D494E54454D50207472696767657265AF
:101EA00064004D383420582059205A204500202FF6
:101EB000002042403A0020403A0002454550524F2F
:101EC0004D206461746173697A65206572726F7206
:101ED0002E0A00290A002062797465733B20637220
:101EE00063200053657474696E67732053746F7256
:101EF0006564202800290A002062797465733B20FC
:101F000063726320002073746F726564207365745C
:101F100074696E6773207265747269657665642092
:101F20002800202863616C63756C617465642921E5
:101F30000A0020213D2000454550524F4D2043527C
:101F400043206D69736D61746368202D202873745C
:101F50006F7265642920002053697A653A20004930
:101F60006E6465783A2000204D61726C696E3D5652
:101F70003535290A0028454550524F4D3D0045450D
:101F800050524F4D2076657273696F6E206D697384
:101F90006D61746368200020643A0020693A002073
:101FA000703A00496E76616C696420657874727568
:101FB0006465720A004B64200023646566696E657F
:101FC0002044454641554C545F004B692000236432
:101FD0006566696E652044454641554C545F004B2B
:101FE00070200023646566696E652044454641554E
:101FF0004C545F00504944204175746F74756E6590
:102000002066696E69736865642120507574207458
:102010006865206C617374204B702C204B692061C3
:102020006E64204B6420636F6E7374616E747320F2
:1020300066726F6D2062656C6F7720696E746F20B9
:10204000436F6E66696775726174696F6E2E680A98
:1020500000504944204175746F74756E6520666147
:10206000696C6564212074696D656F75740A00453B
:102070003120544845524D414C2052554E41574114
:10208000590042454420544845524D414C20525538
:102090004E4157415900546865726D616C2052750C
:1020A0006E617761790045312048656174696E67BA
:1020B000206661696C6564004265642068656174CE
:1020C000696E67206661696C656400486561746962
:1020D0006E67206661696C656400504944204175F3
:1020E000746F74756E65206661696C656421205437
:1020F000656D706572617475726520746F6F2068AC
:102100006967680A00204B643A2000204B693A2036
:1021100000204B703A20000A20436C61737369639E
:1021200020504944200A002054753A2000204B7565
:102130003A2000206D61783A2000206D696E3A20C7
:102140000020643A200020626961733A20005049FF
:1021500044204175746F74756E65206661696C65A5
:1021600064212054656D70657261747572652074A8
:102170006F6F20686967680A005049442041757490
:102180006F74756E652073746172740A00504944EF
:10219000204175746F74756E65206661696C656445
:1021A0002120426164206578747275646572206EC6
:1021B000756D6265720A004F66660A004661646565
:1021C000204865696768742000426564204C657624
:1021D000656C696E6720004661696C656420746F88
:1021E00020656E61626C6520426564204C65766591
:1021F0006C696E670A00496E736572742066696C5B
:10220000616D656E7420616E642073656E64204D2F
:102210003130380A0053656E64204D3130382074F7
:102220006F2068656174206E6F7A7A6C650A004968
:102230006E736572742066696C616D656E74206181
:102240006E6420707265737320627574746F6E2093
:10225000286F72204D313038290A004D3838382027
:10226000636F6F6C646F776E20726F7574696E65E3
:1022700020646F6E650A004D3834005461726765E2
:1022800074206E6F7420726561636865642C2071C0
:10229000756575656420616E206172630A00556C16
:1022A0007472616261736520636F6F6C646F776EC7
:1022B00020737461727465640A00627573793A20E0
:1022C00070617573656420666F7220696E707574D5
:1022D0000A00627573793A207061757365642066CF
:1022E0006F7220757365720A00627573793A207097
:1022F000726F63657373696E670A004A3135004B0C
:10230000494C4C45442E20004B494C4C2063617590
:10231000736564206279204B494C4C20627574745B
:102320006F6E2F70696E0A004B494C4C45442E204D
:10233000004B494C4C2063617573656420627920C1
:10234000746F6F206D75636820696E616374697660
:10235000652074696D65202D2063757272656E74D9
:1023600020636F6D6D616E643A20004A3131005018
:1023700072696E7465722068616C7465642E206B7E
:10238000696C6C28292063616C6C6564210A00000B
:102390000080BF000080BF00000000000048420035
:1023A00000484200000040000000005761726E6962
:1023B0006E673A20486F6D696E672042756D7020B8
:1023C00044697669736F72203C20310A000202046E
:1023D0000000A0400000A040000000400000614359
:1023E00000005E4300005243FFFFFF486F74656EBC
:1023F0006420746F6F20636F6C640A00486F7465AB
:102400006E6420746F6F20636F6C640A007C3C3EC6
:102410005E2B3D3F2F5B5D3B2C2A225C00000021A0
:1024200000240027002A002D0030003300010100A5
:1024300000040107010A0100002200250028002BEA
:10244000002E003100340002010000050108010BDC
:1024500001000020002300260029002C002F00325C
:10246000000001000003010601090105050505073B
:102470000508080808020202020A0A0808040404FF
:10248000040101010101010101030303030303032B
:1024900003040707070C0C0C0C0C0C0C0C020202BA
:1024A0000206060606060606060B0B0B0B0B0B0BAD
:1024B0000B0102102020080810204010204080024C
:1024C000010201080402010102040810204080807A
:1024D00040201008040201800402018040201008FE
:1024E00004020108040201010204081020408001D6
:1024F0000204081020408000000A0B02090C0D0E97
:1025000008070304010000000000000000000000B4
:1025100000000000000000000000000000000000BB
:102520000000001211100000000000000000000078
:1025300000000000000000000000000000556E6B6D
:102540006E6F776E20636F6D6D616E643A2022004E
:10255000496E736572742066696C616D656E742076
:10256000616E6420707265737320627574746F6E2F
:1025700020286F72204D313038290A0050726F6266
:10258000696E67206661696C65640A00205A3A20AA
:102590000020593A200042656420583A2000FFFD8F
:1025A000FCFAF8F6F4F2F0EEECEAE9E7E5E3E1E054
:1025B000DEDCDAD9D7D5D4D2D0CFCDCBCAC8C7C507
:1025C000C3C2C0BFBDBCBAB9B7B6B4B3B2B0AFAD89
:1025D000ACAAA9A8A6A5A4A2A1A09E9D9C9A9998E0
:1025E0009795949392908F8E8D8B8A898887868415
:1025F000838281807F7E7D7B7A797877767574732C
:102600007271706F6E6D6C6B6A6968676665646322
:102610006261605F5E5D5C5B5A595858575655540D
:1026200053525150504F4E4D4C4B4A4A49484746E1
:1026300046454443424241403F3E3E3D3C3B3B3A9F
:1026400039383837363535343332323130302F2E51
:102650002E2D2C2B2B2A29292827272625252423F4
:102660002322212120201F1E1E1D1C1C1B1B1A198A
:102670001918181716161515141313121211111014
:102680000F0F0E0E0D0D0C0C0B0A0A090908080796
:102690000706060505040403030202010000526553
:1026A00073656E643A20006F6B0020746F6F206C4E
:1026B0006F6E6720657874727573696F6E207072C3
:1026C0006576656E7465640A0020636F6C642065CE
:1026D0007874727573696F6E2070726576656E744A
:1026E00065640A0046696C652064656C65746564A0
:1026F0003A0044656C6574696F6E206661696C654B
:10270000642C2046696C653A200050726F746563D2
:102710007465642050696E0A005374616E6461725E
:102720006420446576696174696F6E3A20002052B6
:10273000616E67653A2000204D61783A2000204D97
:10274000696E3A20004D65616E3A200046696E69F7
:1027500073686564210A002072616E67653A200023
:10276000206D61783A2000206D696E3A2000207358
:1027700069676D613A2000206D65616E3A20003A0C
:10278000207A3A2000206F662000205A002059004D
:10279000205800476F696E6720746F3A00436C6F72
:1027A000636B776973650A00436F756E7465722D8C
:1027B0000020446972656374696F6E3A20002020BE
:1027C00020616E676C653A20005374617274696EA3
:1027D00067207261646975733A2000506F73697481
:1027E000696F6E696E67207468652070726F6265CC
:1027F0002E2E2E0A003F4E756D626572206F662088
:102800006C65677320696E206D6F76656D656E749B
:10281000206E6F7420706C61757369626C6520281E
:10282000302D3135292E0A003F2028582C592920D7
:102830006F7574206F6620626F756E64732E0A0068
:102840003F53616D706C652073697A65206E6F749B
:1028500020706C61757369626C652028342D353089
:10286000292E0A004D3438205A2D50726F6265208F
:102870005265706561746162696C69747920546530
:1028800073740A003F2856296572626F7365206C65
:102890006576656C20697320696D706C617573690C
:1028A000626C652028302D34292E0A0043616E6E3B
:1028B0006F74206F70656E2073756264697220009A
:1028C00053442063617264206F6B0A006F70656E01
:1028D000526F6F74206661696C65640A00766F6C74
:1028E000756D652E696E6974206661696C65640A30
:1028F000004572726F723A00534420696E69742009
:102900006661696C0A006563686F3A002569730047
:1029100025696D20256973002569682025696D206A
:1029200025697300256964202569682025696D2063
:102930002569730025697920256964202569682047
:1029400025696D2025697300656E7175657565690A
:102950006E672022005072696E7465722073746F06
:10296000707065642064756520746F206572726F85
:1029700072732E2046697820746865206572726FC4
:102980007220616E6420757365204D393939207469
:102990006F20726573746172742E202854656D7097
:1029A00065726174757265206973207265736574F0
:1029B0002E205365742069742061667465722072DC
:1029C000657374617274696E67290A004E6F2043E3
:1029D0006865636B73756D2077697468206C696EC8
:1029E00065206E756D6265722C204C617374204C8D
:1029F000696E653A20004E6F20436865636B73759E
:102A00006D2077697468206C696E65206E756D62E3
:102A100065722C204C617374204C696E653A2000FD
:102A2000636865636B73756D206D69736D61746345
:102A3000682C204C617374204C696E653A20004C00
:102A4000696E65204E756D626572206973206E6FC8
:102A500074204C617374204C696E65204E756D62F4
:102A600065722B312C204C617374204C696E653A71
:102A700020004D313130004D333100534420726518
:102A80006164206572726F720A00446F6E65207017
:102A900072696E74696E672066696C650A00204908
:102AA0006E76616C696420657874727564657220F5
:102AB00000000080BF000080BF0000000000006038
:102AC0004300005D430000524346696C616D656ED2
:102AD0007420757365643A200053746174733A20EE
:102AE000002C204C6F6E67657374206A6F623A2009
:102AF00000546F74616C2074696D653A20005374E2
:102B00006174733A20002C204661696C65643A2038
:102B1000002C2046696E69736865643A2000507223
:102B2000696E74733A200053746174733A20004ADA
:102B30003036004A3034004A30370020573A004AD5
:102B40003038004A30390020573A00205A3A0020E5
:102B5000593A0020436F756E7420583A0020453A68
:102B600000205A3A0020593A00583A003A0043618E
:102B7000703A00205A00205900580020204D6178FA
:102B80003A2000205A00205900580020204D696E3C
:102B90003A20004F6E20004F666600536F66742027
:102BA000656E6473746F70733A2000486172646379
:102BB0006F6465642044656661756C742053657448
:102BC00074696E6773204C6F616465640A00B80BAA
:102BD0000000D00700003C000000A00F0000000033
:102BE000FA430000FA430000C040000070420000B9
:102BF000A0420000A0420000C8430000D5433A0AAA
:102C00000020286D6D290020204D36303320002013
:102C100055004C0046696C616D656E74206C6F6187
:102C2000642F756E6C6F6164206C656E6774687379
:102C30003A0A0020204D393030204B004C696E6537
:102C4000617220416476616E63653A0A0020204D0E
:102C5000383531205A005A2D50726F6265204F6608
:102C6000667365740020440020490020204D3330F5
:102C70003420500020440020490020204D333031C2
:102C80002050005049442073657474696E67733A2C
:102C90000A00205A0020204D36363600456E6473F7
:102CA000746F702061646A7573746D656E743A0A2E
:102CB00000205A00204A002020473239205720495E
:102CC00000205A0020204D343230205300417574CA
:102CD0006F20426564204C6576656C696E673A0AC0
:102CE00000205A0020590020204D32303620580054
:102CF000486F6D65206F66667365743A0A002045FB
:102D000000205A0020590020580020540020530071
:102D100020204D32303520510020453C6D61785FD8
:102D2000655F6A65726B3E0020583C6D61785F7824
:102D30005F6A65726B3E20593C6D61785F795F6AAE
:102D400065726B3E205A3C6D61785F7A5F6A65728E
:102D50006B3E00416476616E6365643A20513C6D60
:102D6000696E5F7365676D656E745F74696D655FCD
:102D700075733E20533C6D696E5F66656564726174
:102D800074653E20543C6D696E5F74726176656C4B
:102D90005F66656564726174653E00205400205270
:102DA0000020204D323034205000416363656C6553
:102DB000726174696F6E2028756E6974732F733237
:102DC000293A20503C7072696E745F616363656C70
:102DD0003E20523C726574726163745F6163636527
:102DE0006C3E20543C74726176656C5F6163636510
:102DF0006C3E0A00204500205A0020590020204D3A
:102E00003230312058004D6178696D756D20416315
:102E100063656C65726174696F6E2028756E697484
:102E2000732F7332293A0A00204500205A00205996
:102E30000020204D3230332058004D6178696D7587
:102E40006D206665656472617465732028756E69AE
:102E500074732F73293A0A00204500205A00205924
:102E60000020204D39322058005374657073207053
:102E7000657220756E69743A0A0020204D32303038
:102E80002044300A0020204D3230302044002044BD
:102E9000697361626C65640A0046696C616D656E98
:102EA000742073657474696E67733A00202047322A
:102EB00031202020203B002066697273740A005A7A
:102EC0000059005800486F6D6520004A3233004DAC
:102ED00032350047393000473120452D3320463107
:102EE000383030004739310057726974696E672095
:102EF000746F2066696C653A20006F70656E20669D
:102F000061696C65642C2046696C653A20006F70BD
:102F1000656E206661696C65642C2046696C653A53
:102F2000200046696C652073656C65637465640A8E
:102F3000002053697A653A200046696C65206F70FD
:102F4000656E65643A20002066696C653A2000640D
:102F50006F696E67006672657368004E6F77200058
:102F6000454E4420535542524F5554494E450A0050
:102F70002220706F73002220706172656E743A2295
:102F800000535542524F5554494E452043414C4CF5
:102F9000207461726765743A22004B494C4C454479
:102FA0002E2000747279696E6720746F2063616CE3
:102FB0006C207375622D67636F64652066696C654C
:102FC00073207769746820746F6F206D616E79204B
:102FD0006C6576656C732E204D4158206C65766566
:102FE0006C2069733A006F70656E206661696C656C
:102FF000642C2046696C653A200054524947474585
:10300000524544006F70656E003A20007A5F70721E
:103010006F6265007A325F6D696E007A5F6D696E0E
:1030200000795F6D696E00785F6D696E0052657042
:103030006F7274696E6720656E6473746F7020734D
:1030400074617475730A0000000001000000010043
:10305000008000555555000000400033333300AA6E
:10306000AA2A004992240000002000C7711C009980
:10307000991900D1451700555515003BB11300248F
:1030800049120011111100000010000F0F0F00E392
:10309000380E0043790D00CCCC0C00C3300C00E896
:1030A000A20B0064210B00AAAA0A00703D0A009D31
:1030B000D80900427B090092240900DCD30800886B
:1030C0008808001042080000000800F0C1070087CF
:1030D00087070075500700711C07003EEB0600A132
:1030E000BC06006990060066660600703E06006138
:1030F00018060017F4050074D105005BB00500B296
:10310000900500627205005555050078390500B834
:103110001E0500050505004EEC040087D40400A13F
:10312000BD040090A7040049920400C17D0400EE94
:10313000690400C7560400444404005C32040008DB
:1031400021040041100400000004003FF00300F8D7
:10315000E0030026D20300C3C30300CCB503003A4A
:10316000A803000A9B0300388E0300C08103009F60
:10317000750300D0690300505E03001D5303003443
:10318000480300913D030033330300162903003840
:103190001F030097150300300C0300030303000B0B
:1031A000FA020049F10200BAE802005CE002002DD8
:1031B000D802002DD0020059C80200B0C002003170
:1031C000B90200DAB10200AAAA0200A0A30200BC60
:1031D0009C0200FA9502005C8F0200DF88020082E8
:1031E000820200457C02002776020027700200431D
:1031F0006A02007C640200D05E02003F590200C8EF
:103200005302004572726F722077726974696E673B
:1032100020746F20454550524F4D210A002CFFFF6E
:10322000FFFFFF00010101010100EC00EA00112491
:103230001FBECFEFD1E2DEBFCDBF00E00CBF14E078
:10324000A0E0B2E0ECEBF2E202E00BBF02C00790BC
:103250000D92A234B107D9F72DE1A2E4B4E001C088
:103260001D92A230B207E1F719E1C6E1D9E100E011
:1032700006C021970109802FFE010F94C210C531AD
:10328000D10780E00807A9F70E94DAFC0D944D11E0
:103290000C9400002F923F924F925F926F927F9218
:1032A0008F929F92AF92BF92CF92DF92EF92FF9256
:1032B0000F931F93CF93DF93CDB7DEB7A7970FB6CA
:1032C000F894DEBF0FBECDBFC0906904D0906A04F1
:1032D000E0906B04F0906C0420E030E040EA50E4B1
:1032E000C701B6010F944A0987FD4DC120E030E0C7
:1032F00041E953E4C701B6010F94ED0F18160CF421
:1033000042C11092551A1092541A809109014091AD
:10331000531A042E000C550B817021E0822790E097
:103320004817590709F433C0809109018170282793
:103330002093531A81111BC00E9455CFE6E7F8E095
:1033400084918F01882351F0082E000C990B0E9464
:1033500050CF0F5F1F4FF8018491F4CF8DE090E0C4
:103360000E9450CF8AE090E00E9450CF10C0EAE760
:10337000F8E084918F01882389F3082E000C990BC3
:103380000E9450CF0F5F1F4FF8018491F4CF8091BE
:10339000BA188330C1F12CF4882369F08130F1F040
:1033A000ACC0843059F1853009F0A7C0E2E6F8E0FE
:1033B00084918F0169C080913716882309F49DC0DC
:1033C00081E08093BA180E945A6960934A1A7093F8
:1033D0004B1A80934C1A90934D1A8FC080913716D8
:1033E00081118BC080910318882311F082E049C0BD
:1033F0008091BB18882309F4F1C07FC08091941A92
:103400008823A1F37AC0EEE6F8E084918F01882347
:1034100051F0082E000C990B0E9450CF0F5F1F4FE8
:10342000F8018491F4CF8DE090E00E9450CF8AE0C3
:1034300090E00E9450CF8091371681115EC080913C
:10344000711590917215891B8F7009F056C080918B
:10345000BB18823088F411E01093BB188091561A83
:1034600081110AC086E698E09093CB1C8093CA1C19
:103470000E9461D51093561A8091941A8111B6CF8B
:1034800084E08093BA1839C0882351F0082E000CCC
:10349000990B0E9450CF0F5F1F4FF8018491F4CF1A
:1034A0008DE090E00E9450CF8AE090E00E9450CFE3
:1034B00090913716911108C0809171152091721565
:1034C000821B8F7009F49DC08091561A811115C01E
:1034D000911113C08091711590917215891B8F7095
:1034E00009F494C00AC08DE090E00E9450CF8AE0B9
:1034F00090E00E9450CF1092BB1880913C1A90919E
:103500003D1A039724F5EAE0CE2ED12CE12CF12CC4
:103510008FE99BE10E948C4118161906C4F4809132
:103520003C1A90913D1A049794F48FE99BE10E9414
:1035300050418093421AE091431AF091441A8A3024
:1035400019F08D3009F0D7C0309709F0DDC08091B7
:103550003C1A90913D1A009711F40C946A2B019734
:1035600090933D1A80933C1A80913E1A90913F1A95
:10357000019664E070E00F94AF1090933F1A80932F
:103580003E1A0C946A2B8091541A9091551A8136E8
:10359000FAEE9F07E8F01092551A1092541AEEE7CF
:1035A000F8E084918F01882351F0082E000C990BCC
:1035B0000E9450CF0F5F1F4FF8018491F4CF8DE030
:1035C00090E00E9450CF8AE090E00E9450CF9DCEC4
:1035D00001969093551A8093541A97CE1092BA1868
:1035E000E2E7F8E084918F01882309F47CCF082E6C
:1035F000000C990B0E9450CF0F5F1F4FF801849170
:10360000F3CF1092BA181092BB185ECF8DE498E0F9
:103610009093CB1C8093CA1C0E9461D50E94C3E981
:10362000811153C080E090E0A0EAB0E488A399A3A0
:10363000AAA3BBA320E030E048EC51E46091610410
:103640007091620480916304909164040F94C70D9B
:103650006B017C0120E030E042E553E40F944A091D
:1036600087FD06C0C12CD12CF2E5EF2EF3E4FF2E2E
:10367000C982DA82EB82FC82BE01605E7F4FCE019E
:1036800001960E94BB6380E090E0A8ECB2E48CA3BA
:103690009DA3AEA3BFA380E090E0A3E5B3E488A31D
:1036A00099A3AAA3BBA380E090E0A0E1B1E4898341
:1036B0009A83AB83BC83AE014C5D5F4FBE01605EFD
:1036C0007F4FCE0101960E949A6389E498E090931F
:1036D000CB1C8093CA1C0E9461D585E498E090932E
:1036E000CB1C8093CA1C0E9461D51092BB1881E04C
:1036F0008093561A02CF8A3309F426CFEF35F105AD
:1037000014F40C94772820CF8091401A9091411A9C
:1037100020E6289F8001299F100D1124C80186549E
:10372000974EE80FF91F128298012454374E590121
:1037300061E470E0C9010F940A11009711F40C9430
:103740005B289093461A8093451A8A199B09800F2B
:10375000911F60E070E08354974E0F944B050F94D7
:103760000B0FCB01770FAA0BBB0B8232910510F028
:103770000C945B28FC018827EE58FF4F8F4F0D9467
:10378000C210E0E4F8E084918F01882351F0082E04
:10379000000C990B0E9450CF0F5F1F4FF8018491CE
:1037A000F4CF20E030E040E05FE360916904709185
:1037B0006A0480916B0490916C041EC0EBE3F8E006
:1037C00084918F01882351F0082E000C990B0E94E0
:1037D00050CF0F5F1F4FF8018491F4CF60915704D1
:1037E00070915804072E000C880B990B0F94500908
:1037F00020E030E040E05FE30F94C70D0F940B0F23
:10380000CB010E94B6470E94B1E88DE090E00E9493
:1038100050CF8AE090E00E9450CF0C945B28E6E302
:10382000F8E084918F01882351F0082E000C990B49
:103830000E9450CF0F5F1F4FF8018491F4CF20E01A
:1038400030E040E05FE36091530470915404809154
:10385000550490915604D0CFE1E3F8E084918F01B4
:10386000882351F0082E000C990B0E9450CF0F5F57
:103870001F4FF8018491F4CF60915104709152046C
:10388000B1CF209160133091611344E6429FC00193
:10389000439F900D11246FEF70E00F94AF108B01D8
:1038A0006536710510F004E610E0ECE2F8E0849172
:1038B0005F01882359F0082E000C990B0E9450CF0D
:1038C000FFEFAF1ABF0AF5018491F3CFB80180E092
:1038D00090E00C949824E8E2F8E084918F0188232A
:1038E00051F0082E000C990B0E9450CF0F5F1F4F14
:1038F000F8018491F4CF80E290E00E9450CFE4E29E
:10390000F8E084918F01882351F0082E000C990B68
:103910000E9450CF0F5F1F4FF8018491F4CF609148
:10392000590470915A0480915B0490915C040E9448
:10393000F8E880E290E00E9450CFE0E2F8E0849165
:103940008F01882351F0082E000C990B0E9450CF54
:103950000F5F1F4FF8018491F4CF60915D04709167
:103960005E0480915F04909160040E94F8E880E218
:1039700090E00E9450CFECE1F8E084918F01882321
:1039800051F0082E000C990B0E9450CF0F5F1F4F73
:10399000F8018491F4CF6091610470916204809188
:1039A0006304909164040E94F8E880E290E082C68B
:1039B00080913716882309F450C0E7E1F8E084913C
:1039C0008F01882351F0082E000C990B0E9450CFD4
:1039D0000F5F1F4FF8018491F4CF80913816882330
:1039E00059F180910318882329F18091AD189091A5
:1039F000AE18A091AF18B091B0180097A105B1050D
:103A0000C1F0BC01CD016D597F4F8F4F9F4F24E610
:103A100030E040E050E00F94690D6091B118709172
:103A2000B2188091B3189091B4180F94690D822F39
:103A300001C080E090E0E5CEE3E1F8E084918F0101
:103A4000882309F4E2CE082E000C990B0E9450CF77
:103A50000F5F1F4FF8018491F3CFEBE0F8E0849102
:103A60008F01882309F4D1CE082E000C990B0E94F7
:103A700050CF0F5F1F4FF8018491F3CFE6E0F8E0DD
:103A800084918F01882351F0082E000C990B0E941D
:103A900050CF0F5F1F4FF8018491F4CF80914A1AE5
:103AA00090914B1AA0914C1AB0914D1A892B8A2BE8
:103AB0008B2B09F47BC00E945A6920E63AEE40E065
:103AC00050E00F94690D49015A0160914A1A7091B2
:103AD0004B1A80914C1A90914D1A20E63AEE40E034
:103AE00050E00F94690D8401021B130BC8016CE3B5
:103AF00070E00F949B10CB019927EAE0F0E0BF0142
:103B00000F94AF10282FCB01BF010F94AF10805D31
:103B100080934304205D209344041092450483E481
:103B200094E00E94B1E880E290E00E9450CFE4E08F
:103B3000F8E084915F01882359F0082E000C990B5E
:103B40000E9450CFFFEFAF1ABF0AF5018491F3CF67
:103B500080E290E00E9450CFC8016CE370E00F94C7
:103B60009B106AE070E00F94AF10605D60934304B7
:103B7000805D809344041092450483E494E00E94A5
:103B8000B1E880E290E00E9450CFE2E0F8E084915A
:103B90008F01882309F439CE082E000C990B0E945E
:103BA00050CF0F5F1F4FF8018491F3CF80E290E078
:103BB0000E9450CFEAEFF7E084918F01882309F447
:103BC00024CE082E000C990B0E9450CF0F5F1F4F80
:103BD000F8018491F3CF1092751A8091090180FF4A
:103BE00011C0E6EFF7E084918F01882309F40DCE30
:103BF000082E000C990B0E9450CF0F5F1F4FF80149
:103C00008491F3CF83E50E948DE8882341F00E94E0
:103C1000A8E80F94100F7093491A6093481AE2EFC6
:103C2000F7E084918F01882351F0082E000C990B46
:103C30000E9450CF0F5F1F4FF8018491F4CF8DE0A9
:103C400090E00E9450CF8AE090E00E9450CF809197
:103C5000931A882309F442C28091481A9091491A14
:103C60008430910509F4C8C08830910509F47DC1FC
:103C7000892B09F0DDC3EFEFF5E084918F018823F4
:103C800051F0082E000C990B0E9450CF0F5F1F4F70
:103C9000F8018491F4CF8DE090E00E9450CF8AE04B
:103CA00090E00E9450CFE2EFF5E084918F018823ED
:103CB00051F0082E000C990B0E9450CF0F5F1F4F40
:103CC000F8018491F4CF8DE090E00E9450CF8AE01B
:103CD00090E00E9450CFEEEDF5E084918F018823B3
:103CE00051F0082E000C990B0E9450CF0F5F1F4F10
:103CF000F8018491F4CF8DE090E00E9450CF8AE0EB
:103D000090E00E9450CFEAECF5E084918F01882387
:103D100051F0082E000C990B0E9450CF0F5F1F4FDF
:103D2000F8018491F4CF8DE090E00E9450CF8AE0BA
:103D300090E00E9450CFECEBF5E084918F01882356
:103D400051F0082E000C990B0E9450CF0F5F1F4FAF
:103D5000F8018491F4CF8DE090E00E9450CF8AE08A
:103D600090E00E9450CFEEEAF5E084918F01882325
:103D700051F0082E000C990B0E9450CF0F5F1F4F7F
:103D8000F8018491F4CF8DE090E00E9450CF8AE05A
:103D900090E00E9450CFE7EAF5E084918F018823FC
:103DA00051F0082E000C990B0E9450CF0F5F1F4F4F
:103DB000F8018491F4CF8DE090E00E9450CF8AE02A
:103DC00090E00E9450CFE0EAF5E084918F018823D3
:103DD00051F0082E000C990B0E9450CF0F5F1F4F1F
:103DE000F8018491F4CF8DE090E00E9450CF8AE0FA
:103DF00090E00E9450CF1CC3E1E9F5E084918F016F
:103E0000882351F0082E000C990B0E9450CF0F5FB1
:103E10001F4FF8018491F4CF8DE090E00E9450CFC5
:103E20008AE090E00E9450CFE2E8F5E084918F01B3
:103E3000882351F0082E000C990B0E9450CF0F5F81
:103E40001F4FF8018491F4CF8DE090E00E9450CF95
:103E50008AE090E00E9450CFEBE6F5E084918F017C
:103E6000882351F0082E000C990B0E9450CF0F5F51
:103E70001F4FF8018491F4CF8DE090E00E9450CF65
:103E80008AE090E00E9450CFE4E5F5E084918F0154
:103E9000882351F0082E000C990B0E9450CF0F5F21
:103EA0001F4FF8018491F4CF8DE090E00E9450CF35
:103EB0008AE090E00E9450CFEDE3F5E084918F011D
:103EC000882351F0082E000C990B0E9450CF0F5FF1
:103ED0001F4FF8018491F4CF8DE090E00E9450CF05
:103EE0008AE090E00E9450CFE6E2F5E084918F01F5
:103EF000882351F0082E000C990B0E9450CF0F5FC1
:103F00001F4FF8018491F4CF8DE090E00E9450CFD4
:103F10008AE090E00E9450CFE3E1F5E084918F01C8
:103F2000882351F0082E000C990B0E9450CF0F5F90
:103F30001F4FF8018491F4CF8DE090E00E9450CFA4
:103F40008AE090E00E9450CFE0E0F5E084918F019C
:103F5000882309F448CF082E000C990B0E9450CFFB
:103F60000F5F1F4FF8018491F3CFE9EEF4E08491E5
:103F70008F01882351F0082E000C990B0E9450CF1E
:103F80000F5F1F4FF8018491F4CF8DE090E00E9405
:103F900050CF8AE090E00E9450CFE2EDF4E08491AF
:103FA0008F01882351F0082E000C990B0E9450CFEE
:103FB0000F5F1F4FF8018491F4CF8DE090E00E94D5
:103FC00050CF8AE090E00E9450CFEAEBF4E0849179
:103FD0008F01882351F0082E000C990B0E9450CFBE
:103FE0000F5F1F4FF8018491F4CF8DE090E00E94A5
:103FF00050CF8AE090E00E9450CFE2EAF4E0849152
:104000008F01882351F0082E000C990B0E9450CF8D
:104010000F5F1F4FF8018491F4CF8DE090E00E9474
:1040200050CF8AE090E00E9450CFEBE9F4E0849119
:104030008F01882351F0082E000C990B0E9450CF5D
:104040000F5F1F4FF8018491F4CF8DE090E00E9444
:1040500050CF8AE090E00E9450CFE4E9F4E08491F0
:104060008F01882351F0082E000C990B0E9450CF2D
:104070000F5F1F4FF8018491F4CF8DE090E00E9414
:1040800050CF8AE090E00E9450CFE7E8F4E08491BE
:104090008F01882351F0082E000C990B0E9450CFFD
:1040A0000F5F1F4FF8018491F4CF8DE090E00E94E4
:1040B00050CF8AE090E00E9450CFEAE7F4E084918C
:1040C0008F01882309F48FCE082E000C990B0E94D3
:1040D00050CF0F5F1F4FF8018491F3CF80913816B6
:1040E000882309F47CC181E08093B5181092B71839
:1040F0001092B61887E896E10E94C9A58BE1E7E81F
:10410000F6E1DE01159601900D928A95E1F7809116
:104110008516909186169C838B838DE093E09A831D
:10412000898340E050E0BE016F5F7F4F80E090E008
:104130000E9449D1CE0101960E94E89C8090B61859
:104140009090B7180091481A1091491AC401801B29
:10415000910B049720F04801F3E08F0E911C54E47A
:10416000252E54E0352E6BE6462E64E0562E7CE577
:10417000672E74E0772E8016910608F459C1011558
:10418000110509F09DC06BE376E187E896E10E9496
:1041900091A463E373E08BE396E10F941511892BEF
:1041A00009F048C0F20184914BE6A42E44E0B42EFD
:1041B000882359F0082E000C990B0E9450CFFFEF76
:1041C000AF1ABF0AF5018491F3CF8DE090E00E9411
:1041D00050CF8AE090E00E9450CFF30184913CE5FB
:1041E000A32E34E0B32E882359F0082E000C990B2F
:1041F0000E9450CFFFEFAF1ABF0AF5018491F3CFB1
:104200008DE090E00E9450CF8AE090E00E9450CF75
:1042100080E090E00E94F2E8ECE4F4E084915F0139
:104220002FEFA21AB20A882309F4D6C00E94B0D494
:10423000F501F4CFE8E4F4E084915F01882359F0BC
:10424000082E000C990B0E9450CFFFEFAF1ABF0A47
:10425000F5018491F3CF8DE090E00E9450CF8AE089
:1042600090E00E9450CFF101849124E4A22E24E03A
:10427000B22E882359F0082E000C990B0E9450CFC3
:10428000FFEFAF1ABF0AF5018491F3CF8DE090E004
:104290000E9450CF8AE090E00E9450CF80E090E0F2
:1042A0000E94F2E8EFE3F4E084915F012FEFA21A9D
:1042B000B20A882309F490C00E94B0D4F501F4CF6B
:1042C00060E070E0C80101970E942BEA80913916E6
:1042D000882309F45AC0EDE3F4E084915F01882358
:1042E00059F0082E000C990B0E9450CFFFEFAF1A27
:1042F000BF0AF5018491F3CF8BE396E10E94B1E808
:104300008DE090E00E9450CF8AE090E00E9450CF74
:10431000EBE3F4E084915F01882359F0082E000C50
:10432000990B0E9450CFFFEFAF1ABF0AF50184919D
:10433000F3CF88E496E10E94B1E88DE090E00E941E
:1043400050CF8AE090E00E9450CFC8010E94F2E86E
:10435000E9E3F4E084915F012FEFA21AB20A882307
:1043600021F00E94B0D4F501F5CF98E4A92E96E192
:10437000B92EF50181915F01882319F00E94B0D414
:10438000F8CF8AE00E94B0D427C08BE396E10E9468
:10439000B1E88DE090E00E9450CF8AE090E00E946A
:1043A00050CF88E496E10E94B1E88DE090E00E9451
:1043B00050CF8AE090E00E9450CFC8010E94F2E8FE
:1043C00088E4A82E86E1B82EF50181915F0188234B
:1043D000C1F20E94B0D4F8CF0F5F1F4FCCCEEAE2FB
:1043E000F4E084918F01882351F0082E000C990B82
:1043F0000E9450CF0F5F1F4FF8018491F4CF8DE0E2
:1044000090E00E9450CF8AE090E00E9450CFEBE114
:10441000F4E084918F01882309F4E5CC082E000C88
:10442000990B0E9450CF0F5F1F4FF8018491F3CF7B
:10443000EEEEF7E084918F01882309F4E6C9082E97
:10444000000C990B0E9450CF0F5F1F4FF801849111
:10445000F3CF80913716882319F00E94EEE72BC620
:104460001092BB18B7C08091BA18823019F0833609
:1044700009F088C01091BB18123009F444C028F428
:10448000112379F0113011F165C0143009F45CC0CA
:1044900008F44DC0153009F05DC083E08093BA1870
:1044A00057C00E945A6960934A1A70934B1A8093BE
:1044B0004C1A90934D1A80913816882319F081E098
:1044C0008093371681E08093BA1844C083E194E06A
:1044D0009093CB1C8093CA1C0E9461D51092561AEF
:1044E0000E945A6960934A1A70934B1A80934C1A2F
:1044F00090934D1A8091381681111093371681E0F0
:104500008093BA181EC08EE094E09093CB1C8093E9
:10451000CA1C0E9461D510925802109242048091E8
:104520003816882371F081E0809337160AC087E13E
:1045300094E09093CB1C8093CA1C0E9461D510928A
:10454000561A1092BB1806C083E08093BA1882E016
:104550008093BB18EAEEF7E084918F01882351F035
:10456000082E000C990B0E9450CF0F5F1F4FF801CF
:104570008491F4CF8DE090E00E9450CF8AE090E0EB
:104580000E9450CF80915004882309F494C589E09B
:1045900094E09093CB1C8093CA1C0E9461D50E942A
:1045A000719C109250041092420410925802809113
:1045B000BB18843018F082508093BB1883E080933E
:1045C000BA1879C580913716811104C08091BA1844
:1045D000833619F40E949ED06EC5E6EEF7E0849112
:1045E0008F01882351F0082E000C990B0E9450CFA8
:1045F0000F5F1F4FF8018491F4CF8DE090E00E948F
:1046000050CF8AE090E00E9450CF1092BA181092DA
:10461000BB1851C58DED97E00E940B9D8091BA1893
:10462000833609F448C50091451A1091461A58017D
:10463000F4E0AF0EB11C6AE270E0C5010F940A11FC
:10464000F80124812F3221F4B8016B5F7F4F03C042
:104650002C3331F4B50185E79AE10F941E11D5C8CA
:104660001092751A009719F0FC0131971082809111
:10467000451A9091461A40E061E004960E9429EBA9
:10468000809103188823C9F0E9EDF7E084918F0148
:10469000882351F0082E000C990B0E9450CF0F5F19
:1046A0001F4FF8018491F4CF8DE090E00E9450CF2D
:1046B0008AE090E00E9450CFA8C8E5EDF7E0849131
:1046C0008F01882389F3082E000C990B0E9450CF8C
:1046D0000F5F1F4FF8018491F4CF80917115909175
:1046E0007215891B8F7009F0E6C48091BA18823068
:1046F00009F4E1C4833609F4DEC480910318811102
:104700000EC5D9C483E50E948DE8811126C083E4DB
:104710000E948DE8882309F4CEC480917115909190
:104720007215891B8F7009F0C6C420E030E040E2AA
:1047300051E46091610470916204809163049091EE
:1047400064040F944A0987FF08C08AEC97E09093AD
:10475000CB1C8093CA1C0E9461D50E94A8E820E06F
:1047600030E0A9010F944A0987FD10C00E94A8E813
:1047700020E030E849E853E40F94ED0F18164CF0B0
:104780000E94A8E80F94100FCB0105C080E090E0D4
:1047900002C083E191E00E94C77C8DC483E50E9442
:1047A0008DE8882309F487C40E94A8E820E030E05F
:1047B000A9010F944A0987FD10C00E94A8E820E0D3
:1047C00030E046E153E40F94ED0F18164CF00E94D0
:1047D000A8E80F94100FCB0105C080E090E002C064
:1047E00086E990E00E94EC4766C483E50E948DE86C
:1047F0008823E1F00E94A8E820E030E04FE753E48E
:104800000F94AF0920E030E048EC52E40F94A30E7F
:104810000F94100F6F3F710519F010F06FEF70E0FB
:1048200070936113609360130C94051C8FEF90E0FC
:1048300090936113809360130C94051C8091711503
:1048400090917215891B8F7011F00C94051C80914A
:10485000371681110C94051C0E9468925F9A809112
:104860004F048E7F80934F048A9A479A80914F0419
:104870008D7F80934F048091080180958170809393
:104880000601479A80914F048B7F80934F04129AC0
:104890000C94051C83E50E948DE8882319F10E9481
:1048A000A8E820E030E040E252E40F944A0987FD96
:1048B0000FC00E94A8E820E030EC49E754E40F94D0
:1048C000ED0F181644F00E94A8E80F940B0F05C0D6
:1048D00068E270E002C067EE73E0709301026093DB
:1048E0000002E9C3E4ECF7E084918F01882351F0E2
:1048F000082E000C990B0E9450CF0F5F1F4FF8013C
:104900008491F4CF8090000290900102092C000C59
:10491000AA08BB08B7FE0EC06DE28FE99BE10E94BA
:10492000034166277727CB01681979098A099B0912
:104930004AE003C04AE0C501B4010E94B2E80C9409
:10494000051C8091711590917215891B8F7009F06B
:10495000B2C38091BA18823009F4ADC3833609F02E
:1049600078C3A9C38091711590917215891B8F70BE
:1049700011F00C94051C8091BA18823011F40C943B
:10498000051C833609F003C40C94051C8091711535
:1049900090917215891B8F7009F08DC38091BA18A0
:1049A000823009F488C3833609F047C584C38091F7
:1049B000711590917215891B8F7009F07CC38091DD
:1049C000BA18823009F477C3833609F06CC573C313
:1049D0008091711590917215891B8F7009F06BC3CE
:1049E0008091BA18823009F466C3833609F091C504
:1049F00062C38091751A811103C00E9455CF40C2D5
:104A00008E3271F58091761A8E3209F0C2C1809192
:104A1000D817882309F434C281508093D81788238B
:104A200061F090E001974FE1489F9001499F300D60
:104A30001124C9018E55994E02C084E696E12BE1FE
:104A4000FC013496A7E8B6E101900D922A95E1F7B2
:104A5000FC0182819381909386168093851610C203
:104A60008C3309F096C165E373E085E79AE10F9412
:104A70001511892B21F481E08093931A01C264E41B
:104A800073E085E79AE10F941511892BD9F4EFEEC5
:104A9000F3E084918F010F5F1F4F882321F00E9464
:104AA000B0D4F801F6CF86EE93E09093CB1C8093C0
:104AB000CA1C0E9461D584E594E099A388A389E685
:104AC00090E0A3C061E573E085E79AE10F941511CA
:104AD000892B79F4E5ECF3E084918F010F5F1F4F90
:104AE000882321F00E94B0D4F801F6CF8DEB93E03B
:104AF00049C165E673E085E79AE10F941511892BAA
:104B000079F4E9E9F3E084918F010F5F1F4F882367
:104B100021F00E94B0D4F801F6CF8BE793E032C1C8
:104B20006CE773E085E79AE10F941511892B79F40E
:104B3000E7E5F3E084918F010F5F1F4F882321F099
:104B40000E94B0D4F801F6CF83E493E01BC163E97F
:104B500073E085E79AE10F941511892B31F5E8E2AE
:104B6000F3E084918F010F5F1F4F882321F00E9493
:104B7000B0D4F801F6CF83E293E09093CB1C8093FE
:104B8000CA1C0E9461D584E594E099A388A389E6B4
:104B900090E09A838983BE01605E7F4FCE010196CB
:104BA0000E94BAE78DE796E02CC061EA73E085E7E2
:104BB0009AE10F941511892B91F503E013E0F801A8
:104BC0008491882329F00F5F1F4F0E94B0D4F7CF44
:104BD0008EEF92E09093CB1C8093CA1C0E9461D50B
:104BE0008DE796E099A388A389E690E09A8389836C
:104BF000BE01605E7F4FCE0101960E94BAE784E558
:104C000094E099A388A382ED90E09A838983BE0102
:104C1000605E7F4FCE0101960E94BAE731C164EB1E
:104C200073E085E79AE10F941511892BD9F4EAED29
:104C3000F2E084918F010F5F1F4F882321F00E94C3
:104C4000B0D4F801F6CF82E08093BB188DE292E0F9
:104C50009093CB1C8093CA1C0E9461D583E0809303
:104C6000BA180EC16BEC73E085E79AE10F94151149
:104C7000892B09F5E5EBF2E084918F010F5F1F4F5F
:104C8000882321F00E94B0D4F801F6CF8EE094E0A2
:104C90009093CB1C8093CA1C0E9461D5109258023D
:104CA0001092420480913816882309F4E9C081E00B
:104CB00080933716E5C063EE73E085E79AE10F94C1
:104CC0001511892B19F41092931ADAC06AEE73E069
:104CD00085E79AE10F941511892B79F4EBE9F2E05D
:104CE00084918F010F5F1F4F882321F00E94B0D461
:104CF000F801F6CF8DE892E045C067EF73E085E7F5
:104D00009AE10F941511892B79F4E2E7F2E084918E
:104D10008F010F5F1F4F882321F00E94B0D4F8014C
:104D2000F6CF8AE692E02EC065E074E085E79AE16E
:104D30000F941511892B79F4EEE4F2E084918F0140
:104D40000F5F1F4F882321F00E94B0D4F801F6CFE7
:104D50008AE492E017C064E174E085E79AE10F9479
:104D60001511892B09F08CC0E6E3F2E084918F01E4
:104D70000F5F1F4F882321F00E94B0D4F801F6CFB7
:104D800082E392E09093CB1C8093CA1C0E9461D571
:104D900077C01D8218861C821B828DE093E09A8367
:104DA000898380918A16811103C064E676E102C08E
:104DB00063E876E16115710519F06C5F7F4F02C001
:104DC00060E070E021E045E75AE1CE0105960E94DF
:104DD000FFA9882361F18BE1FE013596A7E8B6E1D2
:104DE00001900D928A95E1F72B813C8130938616D4
:104DF000209385168091D8178A3008F03DC091E045
:104E0000980F9093D817FFE18F9FC0011124DC0108
:104E1000AA55B94E4BE1E7E8F6E101900D924A95AB
:104E2000E1F7FC01EE55F94E3383228325C0E6E01D
:104E3000F9E284918F010F5F1F4F882321F00E94B8
:104E4000B0D4F801F6CFE7E1F2E084918F010F5F73
:104E50001F4F882321F00E94B0D4F801F6CF05E758
:104E60001AE1F80181918F01882319F00E94B0D4D2
:104E7000F8CF8AE00E94B0D4CE0101960E94E89C4F
:104E80001092751A8091090180FF15C1E8E0F7E0E2
:104E900084918F01882311F40C94051C082E000CBA
:104EA000990B0E9450CF0F5F1F4FF8018491F2CFF2
:104EB0008FE40E948DE881110C94051C83E40E940C
:104EC0008DE80C94051C83E50E948DE8811159C082
:104ED0008FE40E948DE8882319F080ED96E007C0EA
:104EE00084E50E948DE8882349F088EA96E0909353
:104EF000CB1C8093CA1C0E9461D543C083E40E94EE
:104F00008DE8882319F08FE796E0F1CF81E50E94C4
:104F10008DE8882319F087E596E0E9CF88E40E94C0
:104F20008DE88823C9F0E3E5F6E084918F018823BA
:104F300051F0082E000C990B0E9450CF0F5F1F4FAD
:104F4000F8018491F4CF8DE090E00E9450CF8AE088
:104F500090E00E9450CF15C08CE40E948DE8882319
:104F600081F0EFE4F6E084918F01882361F3082E4D
:104F7000000C990B0E9450CF0F5F1F4FF8018491D6
:104F8000F4CFE7E1F7E084918F01882311F40C94CA
:104F9000051C082E000C990B0E9450CF0F5F1F4F6D
:104FA000F8018491F2CF8091711590917215891B4F
:104FB0008F7011F00C94051C8091BA18823011F496
:104FC0000C94051C833609F0C0C20C94051C83E5C3
:104FD0000E948DE8882309F46EC086E196E09093E4
:104FE000CB1C8093CA1C0E9461D5E7E1F7E0849155
:104FF0008F01882311F40C94051C082E000C990BCA
:105000000E9450CF0F5F1F4FF8018491F2CFE1E172
:10501000F6E084918F01882351F0082E000C990B43
:105020000E9450CF0F5F1F4FF8018491F4CFECE046
:10503000F6E084918F01882311F40C94051C082E4E
:10504000000C990B0E9450CF0F5F1F4FF801849105
:10505000F2CF88E50E948DE8811106C089E50E94A3
:105060008DE8882309F485C088E50E948DE88823AF
:1050700041F08EEB97E09093CB1C8093CA1C0E946A
:1050800061D589E50E948DE8882341F088EB97E09F
:105090009093CB1C8093CA1C0E9461D58AE50E9424
:1050A0008DE8882341F082EB97E09093CB1C8093AE
:1050B000CA1C0E9461D58091401A9091411A0196B4
:1050C00064E070E00F94AF109093411A8093401AFF
:1050D00080913C1A90913D1A019690933D1A8093CD
:1050E0003C1A1092441A1092431A0C94881A409158
:1050F000401A5091411A9F012F5F3F4F3093441A3D
:105100002093431A90E6949F9001959F300D1124AF
:105110002654374EE20FF31F82830C94881A1092A4
:10512000BB180E945A6960934A1A70934B1A809375
:105130004C1A90934D1A80913816882319F081E00B
:105140008093371681E08093BA181092561AE1EDD9
:10515000F7E084918F01882311F40C94051C082E2C
:10516000000C990B0E9450CF0F5F1F4FF8018491E4
:10517000F2CF8AE50E948DE8811176CF83E40E9408
:105180008DE8882309F497CF8EEA97E08ECF86E4E6
:105190000E948DE8882309F44DC10E94A8E80F946D
:1051A000100F8B018AEA97E09093CB1C8093CA1C66
:1051B0000E9461D588E50E948DE8882309F451C0DA
:1051C0000E94A8E82B013C012DEC3CEC4CE45EE392
:1051D0000F944A099E012F5F3F4F5901181674F032
:1051E00020E030E0A901C301B2010F94ED0F1816C1
:1051F0002CF41F930F938FE997E005C12DEC3CEC45
:105200004CEC5DEBC301B2010F944A0918167CF017
:1052100020E030E040E85FEBC301B2010F94ED0FF6
:1052200018162CF41F930F9383E997E0ECC01F939B
:105230000F93C301B2010F940B0F7F936F9389E813
:1052400097E09F938F93BF92AF920F941C090FB674
:10525000F894DEBF0FBECDBFCE0101960E943CD5B3
:10526000DFC089E50E948DE8882309F441C00E94CF
:10527000A8E82B013C012DEC3CEC4CE45EE30F94E0
:105280004A09FE0131965F01181674F020E030E003
:10529000A901C301B2010F94ED0F18162CF41F934E
:1052A0000F938EE797E0AFC02DEC3CEC4CEC5DEB40
:1052B000C301B2010F944A0918167CF020E030E0D7
:1052C00040E85FEBC301B2010F94ED0F18162CF408
:1052D0001F930F9382E797E096C01F930F93C3012C
:1052E000B2010F940B0F7F936F9388E697E0A9CFDD
:1052F0008AE50E948DE8882309F441C00E94A8E84D
:105300002B013C012DEC3CEC4CE45EE30F944A098C
:10531000FE0131965F01181674F020E030E0A9011B
:10532000C301B2010F94ED0F18162CF41F930F93C5
:105330008DE597E068C02DEC3CEC4CEC5DEBC301D7
:10534000B2010F944A0918167CF020E030E040E8E2
:105350005FEBC301B2010F94ED0F18162CF41F93ED
:105360000F9381E597E04FC01F930F93C301B201E4
:105370000F940B0F7F936F9387E497E062CF85E4E0
:105380000E948DE8882309F44BC00E94A8E82B01F5
:105390003C012DEC3CEC4CE45EE30F944A09FE0129
:1053A00031965F01181674F020E030E0A901C301C6
:1053B000B2010F94ED0F18162CF41F930F938CE38A
:1053C00097E021C02DEC3CEC4CEC5DEBC301B2014D
:1053D0000F944A0918167CF020E030E040E85FEBBB
:1053E000C301B2010F94ED0F18162CF41F930F9305
:1053F00080E397E008C0C301B2010F940B0F7F93C5
:105400006F9385E297E09F938F93BF92AF920F9433
:105410001C090F900F900F900F900F900F901CCFC2
:1054200081E297E09093CB1C8093CA1C0E9461D5C7
:105430000C94051C00E010E0B5CE20E030E040E226
:1054400051E46091610470916204809163049091D1
:1054500064040F944A0987FF08C08AE197E090939B
:10546000CB1C8093CA1C0E9461D582E390E090938C
:105470005204809351040E942F7C88EC90E00E949B
:10548000C77CE7E1F7E084918F01882311F40C9445
:10549000051C082E000C990B0E9450CF0F5F1F4F68
:1054A000F8018491F2CF20E030E040E251E46091D5
:1054B00061047091620480916304909164040F947C
:1054C0004A0987FF08C080E197E09093CB1C809346
:1054D000CA1C0E9461D580E590E0909352048093AD
:1054E00051040E942F7C80EF90E00E94C77CE7E18E
:1054F000F7E084918F01882311F40C94051C082E89
:10550000000C990B0E9450CF0F5F1F4FF801849140
:10551000F2CF80E090E00E94C77C1092520410927B
:1055200051040E942F7CECE0F7E084918F018823E6
:1055300011F40C94051C082E000C990B0E9450CFFE
:105540000F5F1F4FF8018491F2CF83E50E948DE831
:10555000882399F1EAE4F6E084918F01882351F0E1
:10556000082E000C990B0E9450CF0F5F1F4FF801BF
:105570008491F4CF20E030E048EC52E460914B0499
:1055800070914C0480914D0490914E040F94AF099A
:1055900020E030E040E05FE30F94C70D0F940B0F65
:1055A000CB010E94B6470E94B1E88DE090E00E94D6
:1055B00050CF8AE090E00E9450CF84E40E948DE8B2
:1055C000882311F40C94051C0E94A8E820E030E028
:1055D00048EC52E40F94A30E20E030E048EC52E493
:1055E0000F94AF090F940B0F4B015C0197FD0EC098
:1055F00020E137E240E050E00F948B0DCA01B90181
:10560000A70196010F948B0D605D09C0B094A09422
:1056100090948094811C911CA11CB11C6DE260933C
:105620004404C501B40128EE33E040E050E00F949B
:105630008B0DCA01B901A70196010F948B0D605D16
:1056400060934504C501B40124E630E040E050E039
:105650000F948B0DCA01B901A70196010F948B0D10
:10566000605D609346048EE280934704C501B401F7
:10567000A70196010F948B0D162FCA01B901A7013E
:1056800096010F948B0D605D60934804105D10933C
:10569000490483E496E09F938F938E010F5F1F4F21
:1056A0001F930F930F941C0964E474E0C8010F94D6
:1056B000FF10C8010E943CD58EE396E09093CB1C6E
:1056C0008093CA1C0E9461D50F900F900F900F908D
:1056D0000C94051CA7960FB6F894DEBF0FBECDBF85
:1056E000DF91CF911F910F91FF90EF90DF90CF90BE
:1056F000BF90AF909F908F907F906F905F904F90F2
:105700003F902F9008952F923F924F925F926F9209
:105710007F928F929F92AF92BF92CF92DF92EF9241
:10572000FF920F931F93CF93DF93CDB7DEB7C35490
:10573000D1090FB6F894DEBF0FBECDBF11E01093B4
:10574000C10A80910F128D3409F491C4843511F48B
:105750000C94A93F873411F00C94F53F80910D1201
:1057600090910E128B31910509F403C2A4F4843098
:10577000910534F482309105A4F597FF2BC073C4D2
:105780008430910509F4BFC14A9709F06CC40E94A6
:10579000FA470C94F73F8A32910509F40AC354F48E
:1057A0008D31910509F42CC20CF413C24E9709F403
:1057B0002BC259C48B35910509F4D3C38C3591059F
:1057C00009F4D3C38A35910509F04DC410927204CF
:1057D0000C94F73F8091210281110C94FC3F0C94B2
:1057E000F73F20912102222311F40C94F73F11E09E
:1057F000029709F010E00E94005F19821A821B8252
:105800001C821D821E821F82188682E50E945D46D0
:10581000882309F428C10E94DD454B015C0120E08A
:1058200030E0A9010F944A09882309F432C180911C
:10583000590490915A04A0915B04B0915C0488A72C
:1058400099A7AAA7BBA780915D0490915E04A0913F
:105850005F04B09160048CA79DA7AEA7BFA78091FD
:105860001D0B90911E0BA0911F0BB091200B88ABCC
:1058700099ABAAABBBAB8091210B9091220BA0916D
:10588000230BB091240B8CAB9DABAEABBFAB28A967
:1058900039A94AA95BA968A579A58AA59BA50F94F2
:1058A0004A0981110DC02CA93DA94EA95FA96CA57B
:1058B0007DA58EA59FA50F944A09882309F4E9C008
:1058C00020E030E0A901C501B4010F944A09881F06
:1058D0008827881F181729F080E090E0A0E8BFEB28
:1058E00004C080E090E0A0E8BFE38CAF9DAFAEAF16
:1058F000BFAF28A539A54AA55BA568A979A98AA93A
:105900009BA90F94C60D68AF79AF8AAF9BAF2CA54A
:105910003DA54EA55FA56CA97DA98EA99FA90F9451
:10592000C60D6B017C0128AD39AD4AAD5BADCA0136
:10593000B9010F94AF092B013C01A7019601C701E2
:10594000B6010F94AF099B01AC01C301B2010F94E2
:10595000C70D0F9432102B013C0120E030E040E0F5
:105960005FE30F94AF0924966CAF7DAF8EAF9FAF0E
:105970002497A5019401C501B4010F94AF094B010F
:105980005C0124962CAD3DAD4EAD5FAD2497CA01B0
:10599000B9010F94AF099B01AC01C501B4010F948B
:1059A000C60D0F9432102CAD3DAD4EAD5FAD0F94D2
:1059B000AF094B015C01C701B6019058A3019201E8
:1059C0000F94A30EA50194010F94AF096B017C0104
:1059D00028A939A94AA95BA968A579A58AA59BA583
:1059E0000F94C70D20E030E040E05FE30F94AF0973
:1059F0009B01AC01C701B6010F94C70D28A539A5BD
:105A00004AA55BA50F94C60D69837A838B839C831B
:105A10002CA93DA94EA95FA96CA57DA58EA59FA522
:105A20000F94C70D20E030E040E05FE30F94AF0932
:105A30006B017C01A301920168AD79AD8AAD9BAD8C
:105A40000F94A30EA50194010F94AF099B01AC0123
:105A5000C701B6010F94C70D2CA53DA54EA55FA5A6
:105A60000F94C60D12C089E40E945D46882331F070
:105A70000E94DD4569837A838B839C838AE40E943C
:105A80005D46882331F00E94DD456D837E838F83E0
:105A9000988720E030E0A90169817A818B819C811F
:105AA0000F944A0981110EC020E030E0A9016D81F8
:105AB0007E818F8198850F944A09811103C0E1EF9F
:105AC000F8E20DC0412FBE016F5F7F4F8DE19BE07B
:105AD0000E94D7BA0C94F73F0E94B0D4F801849189
